:100249003F065B4F666D7D077F6F777C395E7971FD
:050259007679383F003A
:06022500C2A77F017E006C
:10022B00D3EF9400EE940040147D6E7C00ED1D70B6
:0D023B00011CED4C70F7EF1F70E61E80E314
:010248002293
:1001CE001201FFE50F64016014850B15850D168570
:1001DE000E177B057D067F071200AD80E6751512A2
:1001EE007516137517147B127D117F101200AD80DA
:0101FE00D22E
:1001FF007510017511B0750CFE850C907589117510
:10020F008C3C758AB0758D3C758BB0D2AFD2A9D2AC
:06021F00ABD28CD28E224E
:03000B0002017C73
:10017C00C0E0C0D075D000C000C007758C3C758A3B
:10018C00B00509E5086401601AE509640A702A756E
:10019C000901AF0C7801EF08800123D8FDF50CF5AF
:1001AC00908016E509540370036390FFE509B43C95
:1001BC0008C28C7590FF750F01D007D000D0D0D03D
:0201CC00E0321F
:03001B0002001EC2
:10001E00C0E0C0F0C0D075D000C000C004C005C0A4
:10002E0006C007758D3C758BB0050AE50A64027033
:10003E005DF50AE511151170021510AE10AF117CA9
:10004E00007D641201278F0BAE10AF117C007D6412
:10005E001201277E007F0ACFCDCFCECCCE12012744
:10006E008F0DAE10AF117C007D0A1201278D0EE5AB
:10007E0011B48E1AE510B40115C28C758C3C758ABC
:10008E00B0D28C7508017509007590FFC28ED0072D
:0F009E00D006D005D004D000D0D0D0F0D0E032C2
:1000AD00AA05D2A6EF90024993F580C2A67580FFEE
:1000BD00D2A77580FE120225D2A6EA93F580C2A6BC
:1000CD007580FFD2A77580FD120225D2A6EB93F5A0
:1000DD0080C2A67580FFD2A77580FB120225D2A61D
:1000ED00E51593F580C2A67580FFD2A77580F7122E
:1000FD000225D2A6E51693F580C2A67580FFD2A77C
:10010D007580EF120225D2A6E51793F580C2A6756C
:0A011D0080FFD2A77580DF020225E3
:0300000002000EED
:0C000E00787FE4F6D8FD7581170201CE62
:10012700BC000BBE0029EF8DF084FFADF022E4CCBC
:10013700F875F008EF2FFFEE33FEEC33FCEE9DEC85
:10014700984005FCEE9DFE0FD5F0E9E4CEFD22EDCB
:10015700F8F5F0EE8420D21CFEADF075F008EF2F15
:10016700FFED33FD4007985006D5F0F222C398FD06
:050177000FD5F0EA22A3
:00000001FF
