:100003007509FEE4F508E4F50A850990C2A3120018
:100013006BAF097801EF08800123D8FD1200640556
:100023000AE50AC3940840E10508E508C3940340C0
:10003300D5E4F508E4F50A850990C2A312006BAF75
:10004300097801EF08800103D8FD120064050AE571
:100053000AC3940840E10508E508C3940340D5802A
:01006300FE9E
:0B006400F5097590FFD2A37F647E00B9
:10006F00D3EF9400EE940040147D6E7C00ED1D7074
:0D007F00011CED4C70F7EF1F70E61E80E3D2
:01008C002251
:0300000002008D6E
:0C008D00787FE4F6D8FD75810A020003BC
:00000001FF
