:0300000002014FAB
:0C014F00787FE4F6D8FD7581090200EF0E
:1000EF00E4F508120064E50824FE600C14600E2489
:1000FF000270F012009D80EB1200C680E612000322
:02010F0080E18D
:100064007590FFE590540F640E700A1201302090D1
:100074002775080122E590540F640D700A120130AF
:1000840020911575080222E590540F640B70091233
:09009400013020920375080322DB
:10009D0075A0FEE4F508120064D3E50894007480A1
:1000AD009480400302015BAFA07801EF088001232B
:0900BD00D8FDF5A012011180DD4F
:1000C60075A0FEE4F508120064D3E5089400748078
:1000D6009480400302015BAFA07801EF0880010322
:0900E600D8FDF5A012011180DD26
:1000030075A0FEE4F508120064D3E508940074803B
:1000130094804002804012011175A07E120064D3C7
:10002300E5089400748094804002802A12011175BF
:10003300A0BD120064D3E50894007480948040024C
:10004300801412011175A0DB120064D3E50894003B
:1000530074809480400302015B12011175A0E78054
:01006300A5F7
:10011100E4FFEFC394DC748094805012E4FEEEC3DC
:0E01210094DC7480948050030E80F30F80E411
:01012F0022AD
:10013000E4FFEFC39464748094805012E4FEEEC335
:0E01400094647480948050030E80F30F80E46A
:01014E00228E
:03015B0075A0FF8D
:01015E00227E
:00000001FF
