:1000AB0049204C494B45204D435521005757572E5E
:0A00BB0054584D43552E434F4D009D
:0F005F008F807F057E0012006ED2B47F057E0079
:10006E00D3EF9400EE940040147D6E7C00ED1D7075
:0D007E00011CED4C70F7EF1F70E61E80E3D3
:01008B002252
:0800D100C2B512005FC2B422A7
:0800D900D2B512005FC2B4228F
:10008C00C2A6C2A7C2B47F381200D17F0E1200D113
:0F009C007F061200D17F011200D17F900200D1A8
:1000030012008CE4F508E5089000AB93FF1200D9C9
:100013007F147E0012006E0508E508C3940B40E6CA
:100023007FD31200D1E4F508E5089000B793FF12DF
:1000330000D97F147E0012006E0508E508C3940DF5
:1000430040E6E4F5087F181200D17F147E00120009
:0C0053006E0508E508C3941040EB80FE29
:030000000200C536
:0C00C500787FE4F6D8FD75810802000386
:00000001FF
