:0700D900D2A01200E0D2A149
:0100E00022FD
:0800E1001200D9C2A00200E0E8
:0A00CF00C2A01200DBD2A00200E084
:080028001200E17FA012006745
:10003000D2A11200E030A00BE509C394FA500405E8
:080040000980F2C2A10200E0F8
:0300E9000200D939
:10006700E4FEEF25E0FFC2A11200E092A01200DB40
:0E0077000EBE08EEC2A11200E0D2A00200E010
:10000300C2A11200E0D2A01200E0E4FED2A11200CD
:10001300E0EF25E0FDA2A0E4334DFFC2A11200E012
:040023000EBE08E81D
:0100270022B6
:0D00B500EFD3940040077E64DEFE1F80F351
:0100C200221B
:10008500AC07120028AF04120067120030AF05124A
:0800950000671200300200CFE9
:02004800AD0702
:10004A00120028AF051200671200301200E17FA1EA
:0C005A001200671200301200031200CFE9
:010066002277
:10009D001200E97DAA7F171200857F641200B57FDB
:0800AD00171200488F9080FE3D
:030000000200C338
:0C00C300787FE4F6D8FD75810902009DED
:00000001FF
